:020000040000FA
:10000000602700208D040000950400009704000084
:10001000990400009B0400009D0400000000000003
:100020000000000000000000000000009F0400002D
:10003000A104000000000000A3040000A5040000CB
:1000400089070000A7040000910A0000A70400002F
:10005000A704000041050000A7040000A704000059
:10006000A7040000A7040000A7040000A7040000E4
:10007000A7040000A7040000A7040000A7040000D4
:10008000A7040000E9070000A7040000A70400007F
:100090000D080000A7040000A7040000A70400004A
:1000A000A7040000A7040000A70400007D0A0000C8
:1000B000A7040000A70400000000000000000000EA
:1000C000A7040000A7040000A7040000A704000084
:1000D000A7040000A7040000A7040000000000001F
:1000E0000000000000000000000000000000000010
:1000F0000000000000000000000000000000000000
:1001000000000000000000000000000000000000EF
:1001100000000000000000000000000000000000DF
:10040000DFF80CD000F078F80048004795140000A1
:1004100060270020401E00BF00BF00BF00BF00BF1C
:1004200000BF00BF00BF00BF00BF00BF00BF00BFD4
:1004300000BF00BF00BF00BF00BF00BF00BF00BFC4
:1004400000BF00BF00BF00BF00BF00BF00BF00BFB4
:1004500000BF00BF00BF00BF00BF00BF00BF00BFA4
:1004600000BF00BF00BF00BF00BF00BF00BF00BF94
:1004700000BF00BF00BF00BF00BF00BF00BF00BF84
:1004800000BF00BF00BFC5D17047000006488047CD
:1004900006480047FEE7FEE7FEE7FEE7FEE7FEE769
:1004A000FEE7FEE7FEE7FEE711080000010400009A
:1004B00040EA01039B0703D009E008C9121F08C0E6
:1004C000042AFAD203E011F8013B00F8013B521E66
:1004D000F9D27047D2B201E000F8012B491EFBD2DD
:1004E00070470022F6E710B513460A46044619463F
:1004F000FFF7F0FF204610BD064C074D06E0E06810
:1005000040F0010394E8070098471034AC42F6D35A
:10051000FFF77AFFB4260000D42600000748012226
:10052000026000219007C0F804118260D0F8042115
:10053000002AFBD0C0F804117047000018050040E5
:100540002DE9F05F5D4CD4F804015D4D012690B1BA
:10055000D4F8000380070ED55A4801F04FFD6878A3
:1005600040B905F1100001F0F1FA5748C660066085
:100570000020A8606E70D4F81801544F08B3D4F866
:10058000000340061DD552480068C0F3C800A0F122
:1005900002084C48143001F031FD3878302803D07F
:1005A000387850280BD00BE0D5F804C0BCF1000F10
:1005B00007D04346454A0221E868E04701E02E7033
:1005C000E661D4F81001DFF808A14FF0100BAAF192
:1005D000140AD0B1D4F80003C00616D539480C303F
:1005E00001F00CFDC4F808B3CAF800700AF1040168
:1005F000C1F800B0E661D5F804C0BCF1000F04D02A
:1006000000231A460321E868E047D4F84C01DFF8DC
:10061000C4904FF00D0838B3D4F80003000323D57D
:100620002848483001F0EAFC2648143001F0E6FC86
:100630002448243001F0E2FCCAF800702449103943
:10064000C1F800B0E6614FF48860C4F804032149A2
:100650000831C1F80080C9F800806F6827B1002315
:100660001A461946E868B847D4F8280160B1D4F8AA
:100670000003400508D5174F083738681148243063
:1006800001F0BCFCC7F80080D4F81C01002813D08E
:10069000D4F8000300060FD5D9F800704C4609487D
:1006A000183001F0ABFCF80704D0287810B12660B0
:1006B00000202870C4F80080BDE8F09F0050004082
:1006C000540000200451004000B00140D406002036
:1006D000245500400454004000F01F0201219140C5
:1006E0004009800000F1E020C0F88012704700F05F
:1006F0001F02012191404009800000F1E020C0F874
:100700008012704700F01F020121914040098000D3
:1007100000F1E020C0F80011704700F01F02012135
:1007200091404009800000F1E020C0F800117047BE
:1007300000F01F02012191404009800000F1E020FB
:10074000C0F8001270474907090E002806DA00F0C9
:100750000F0000F1E02080F8141D704700F1E02048
:1007600080F8001470474907090E002806DA00F0E7
:100770000F0000F1E02080F8141D704700F1E02028
:1007800080F80014704700002DE9F0414FF48077A5
:10079000384601F0A7F90124124EA50750B138469A
:1007A00001F0A7F90120C5F8080374720021301D7B
:1007B00000F0BAFB4FF48277384601F093F9002835
:1007C0000DD0384601F095F90220C5F80803B4723F
:1007D000BDE8F04103480121103000F0A5BBBDE8A1
:1007E000F0810000A006002007480021C0F8401159
:1007F000C0F84411C0F84811C0F84C11C0F80011FD
:10080000C0F8041101F0C6BC0010014001F05EBC4C
:1008100070B58D480023021D0178101D01240629A2
:1008200007D115782D0704D10578C5F30315032DDD
:1008300002D0062904D00FE0854E844D75670EE086
:1008400015782D0708D10578C5F30315032D06D0BB
:10085000042D04D0052D02D0062909D010E04FF058
:100860008055D5F844527B4EC5F34235356002E0E1
:1008700015782D0704D10578C5F30315032D02D093
:10088000062906D011E0744D2E6826F080762E6081
:100890000EE015782D0708D10578C5F30315032D53
:1008A00006D0042D04D0052D02D006290AD011E06F
:1008B0004FF08045C5F80C31C5F81031654D2D1F3E
:1008C0002B6002E015782D0704D10578C5F30315D8
:1008D000032D02D0062905D00CE05E4A03216432C4
:1008E00011600AE015782D0704D10578C5F30315CA
:1008F000032D02D006290DD06AE0584A0521116067
:10090000564978310C60554908310B603F21121D62
:10091000116002E0117809075AD10078C0F3031082
:10092000052855D14E4800684E4908604C48001DC6
:100930000068091D08604A4808300068091D086001
:1009400047480C300068091D0860454810300068B1
:10095000091D0860424814300068091D08604048BD
:10096000183000683F49203108603D481C3000685D
:10097000091D08603A4820300068091D08603848A1
:1009800024300068091D0860354828300068091DBA
:10099000086033482C300068091D0860304830304A
:1009A00000683049403108602D4834300068091D26
:1009B00008602B4838300068091D086028483C3022
:1009C0000068091D0860264840300068091D08605D
:1009D00021487438016841F470010160BFF34F8F02
:1009E000BFF36F8F4FF01021D1F80002002803DB16
:1009F000D1F80402002822DA1B4A14601B4804685C
:100A0000002CFCD01524C1F800420568002DFCD054
:100A1000C1F8044201680029FCD013600168002974
:100A2000FCD0BFF34F8F0C48F0380168104A01F436
:100A3000E06111430160BFF34F8F00BFFDE70E4936
:100A40000C48086070BD0000E00F00F00DF0ADBA7A
:100A500000C007403C050040FCED00E0105600409F
:100A60000404001020C5004004E5014000E40140FA
:100A70000400FA050090D0039400002010B500F0A7
:100A800081FB02490020C1F8400110BD00B00140C7
:100A90000348007F08B101F00DBD01F077BC0000F4
:100AA000B40600200FB4054B10B503A9044A029800
:100AB00000F017F810BC5DF814FB000057100000A0
:100AC0003000002002E008C8121F08C1002AFAD135
:100AD00070477047002001E001C1121F002AFBD1BE
:100AE00070472DE9F84F99469246884605460027FB
:100AF00006E025280AD051464A4690476D1C7F1CC7
:100B000028780028F5D13846BDE8F88F002315F87D
:100B1000011F18462E2915D115F8011F04232A2973
:100B20000DD06FF02F022978A1F13004092C09D8DB
:100B300000EB800002EB400008446D1CF3E758F81E
:100B4000040B6D1C2A78002ADDD0632A07D0732A93
:100B50000FD0104651464A4690477F1C2AE018F8AD
:100B6000042B8DF8002000218DF801106E46012124
:100B700003E058F8046B4FF0FF315A074FF00004C0
:100B800001D409E0641C84420BDA8C42FADB325D4A
:100B9000002AF7D105E0641C8C42FCDB305D0028A4
:100BA000F9D1274404E016F8010B51464A46904714
:100BB000641EF8D26D1CA3E7BFF34F8F0548016890
:100BC000054A01F4E06111430160BFF34F8F00BF9C
:100BD000FDE700000CED00E00400FA050EB5002171
:100BE0000091CDE901106A4644F20100FFF7E4FFED
:100BF0000EBD10B58268C368934203D000F018FAA6
:100C0000002010BD052010BD29B112B1531E1342A2
:100C100003D0092070470E207047016083800021B7
:100C20008160C1600846704710B58268C3689A1A2F
:100C300083889A4203D800F005FA002010BD0420F2
:100C400010BD0000074B9B6823B12AB120B100689A
:100C5000037C1BB108207047072070474174426134
:100C600000207047340000202DE9F0478046994667
:100C700014460F4690074FF0000634D11C4D8CB33C
:100C800001F0D2F90320C5F81490287004F118007F
:100C9000002107EB4703AC6004EBC102491C16704E
:100CA00056709770506000EBC3000329F4DBEE60D0
:100CB0006E70AE701420FFF70FFD06211420FFF7B1
:100CC00042FD1420FFF71EFD0A49C1F800800621ED
:100CD0001120FFF738FD0748001F00682861002039
:100CE000BDE8F08701E00720FAE7AE60FBE700000F
:100CF00034000020081501402DE9F843DFF870901A
:100D00000D461746D9F80810044651B34CB3052DCB
:100D100002D20720BDE8F883606910B3607C012827
:100D200021D0002601F05CFCD9F80810804601EBC8
:100D3000C800694601F073FCB8B1012100F8041B3A
:100D40000C4910C0096880E8E200D9F8081001EBEE
:100D5000C8009DF8001041701420FFF7E9FC002046
:100D6000D8E70820D6E72E46DCE70420D2E70000CB
:100D7000340000200415014010B50446094881687C
:100D8000C2688088511A814206D10121064800F0CC
:100D900085FF08B1052010BD2146BDE8104001487F
:100DA000FFF727BF800600202500002070B504460D
:100DB000234888B01E460D00426035D0A8882968B7
:100DC00082B22048FFF720FF00282ED1A889A96809
:100DD00082B21C481030FFF717FF002825D12022CF
:100DE00019496846FFF764FBA0680690207900B1B6
:100DF00001208DF814008DF81C60607900B10E2080
:100E00008DF81500E0780290A0780390207801908A
:100E1000607800900D49684600F0F6FE002804D185
:100E20009DF81D0018B104E0072008B070BD00F067
:100E30007BFF03480121401C00F030FFF5E7000074
:100E4000240000208006002068260000E522000023
:100E500010B501460948FFF7E7FE04000CD101F088
:100E600091F848B906490548FFF7C3FE20B90121AA
:100E7000034800F0FFFF0446204610BD9006002006
:100E80002400002000F002B800F008B872B6024852
:100E90000168491C016070472C0000200349086864
:100EA000401E086000D162B6704700002C00002090
:100EB0002DE9F04104460078184F012606FA00F0AB
:100EC0003860206801F087F80021606801F073F84D
:100ED0001348144D007FA069C5F82405607D217D6D
:100EE0000843C5F86C05D4E90001C5F80C05C5F840
:100EF0001415207D01280FD10021A06801F05BF8B6
:100F0000207B86403E60E06801F065F8D4E902018C
:100F1000C5F80815C5F81005BDE8F08108050050B2
:100F2000B40600200020004070B50D46044620683D
:100F3000002805D001682160416828468847F6E707
:100F400070BD00002DE9F05F2648C168F1B3DFF8FD
:100F500098B00E688146DBF800400769C078E11B55
:100F600021F07F45ED1CB0B9DFF880804FF4803070
:100F7000C8F84403C8F804031120FFF7ADFB1120A3
:100F8000FFF7C0FB4FF0010AC8F800A02F20FFF7C1
:100F900041FA89F803A0B54200D23546124BE81950
:100FA0003C3320F07F401860DBF800105A46091BE4
:100FB00021F07F41001B20F07F40C91C81420FD9E6
:100FC000106818602F20FFF725FA00E004E0BDE864
:100FD000F05F1120FFF7ACBBBDE8F05F01F024B873
:100FE000BDE8F09F340000200415014000100140CE
:100FF0000E4910B54A788C780023A24212D0521CB8
:10100000D2B24A70022A00D14B70084A4B7818328B
:1010100052F8232002600869104420F07F400861E4
:10102000012010BD0360002010BD0000340000202E
:10103000826883881A4003689A5C0A708168491C38
:1010400081607047C26883881A4003689954C168F8
:10105000491CC160704710B50446C0B2FFF7F8FEE6
:10106000204610BD70B5254CA0421ED1F1B101291A
:1010700036D0022928D0032917D1072000F0CAFA58
:10108000002812D194F8680094F8691088420CD1B5
:1010900094F86A00002808D10023D4E901501A46C8
:1010A0000321A847012084F86A0070BD052000F0E4
:1010B000B1FA0028F9D1A06864680023A446BDE80D
:1010C00070401A460121604710461900EDD00028F3
:1010D000EBD00278302AE8D1BDE8704000F0BABA0F
:1010E000082000F097FA28B9A068002364681A461F
:1010F0000221A047BDE8704000F046BBF00600208A
:10110000F0B51C490B68091D09681B4A0224C2F886
:1011100004431A4CC2F80443DAB2C3F30724C3F3FE
:101120000743027082EA040583F088064470754024
:101130008370C57001710D0A0E0C45710F0E86711A
:1011400069407E40C77171400172032141721104F0
:101150000B4A41EA0421194311604168C07909BA78
:1011600021F0FF010143101F0160054944200C31AB
:101170000860F0BD500400100050004080000800DE
:1011800094550040FEB513480068134C10F0030F4F
:101190004FF0000501D0A560FEBDA068401CA06016
:1011A0000728F9D90D480126066100F0B9FCBFF304
:1011B0005F8F0B480560BFF35F8F0660666826B1DE
:1011C00000231A460121E068B04765706846FFF7C2
:1011D00097FFFEBD3C5400405400002000B0014089
:1011E000FC5F004070B50C00054613D00A4800F0C3
:1011F00005FF0A480560094940F6FF700C3100EA16
:10120000C400086006481021C0F804130121C16021
:10121000002070BD022070BD1051004010550040EC
:10122000005000403EB51C4AD16050606846FFF750
:1012300067FF0A21684600F0CBFA174817491030BB
:101240000025C0E9005100F0A9FC044614480560DF
:1012500013490120091D0860114A04210C32116054
:101260000F4A64213C3211600E49C1F800020004AB
:10127000C1F804031B20FFF73AFA06211B20FFF7F1
:1012800072FA1B20FFF749FA1CB1852C01D001200E
:101290003EBD00203EBD000054000020ED1F0000B8
:1012A00004B5014000B00140094910B50D200860A7
:1012B0000520FFF71CFA06210520FFF754FA052048
:1012C000FFF72BFA034901208860002010BD0000C1
:1012D00004540040005000400249012048600020B2
:1012E0007047000000500040044910B5012008601C
:1012F000012000F007FC0028FAD110BD04000040D6
:1013000002680A60002A0160704700002DE9F0477A
:10131000DFF8ACA0DAF80C009AF8004080469AF8A2
:101320000460DAF80890DAF810703AE009EBC405C6
:101330002A7833E002EB42016B68521C03EBC101D7
:10134000AB78D2B2934200D100220B78022B02D0AC
:10135000032B23D11FE0D1F804C00346014603E06C
:10136000614503D00B46C969C1B1F9E7B1B18B4200
:1013700005D1C06918B9134F0126BE600027D1F806
:1013800000C0C969D96149B10B6863440B6005E0CD
:101390000174C06900E000210028F9D16978914208
:1013A000C8D1641EE4B2C1D2CAE903078AF8046056
:1013B000404502D00120BDE8F0870020FBE7000097
:1013C00034000020001001402DE9F04705462F4869
:1013D000002680460778D0F80C904BE0D8F808003B
:1013E00000EBC70440E002D02846ED691EE02078FB
:1013F000616800EB4002401CC0B201EBC2012070EA
:10140000A278904200D126700A784868012A2DD12E
:10141000027C5ABB8A684260CA6882600A69C260FC
:101420004969816198F8041001B146604268D8F8B2
:101430001030DFF85CC0D11A21F07F41614502D243
:101440008268114406E0991A826821F07F418A423D
:1014500002D9511A016000E00660466001218660F1
:101460000174C66100F078FE002DBCD1207861784F
:101470008842BCD17F1EFFB2B0D2D8F80C104945CB
:1014800002D00120BDE8F0870020FBE734000020F7
:10149000FFFF7F008AB0FFF741F8374E06AB06F139
:1014A00014004FF4807507C883E807003348CDE97E
:1014B000020500F58070CDE904050623304A02A933
:1014C00006A8FFF773FC08B1FFF788FB2DA0FFF714
:1014D000E9FA00245FF0010707FA04F0800302D55F
:1014E000204600F071FD641C202CF5D32C494FF4EC
:1014F000003008600020091D0860192000F064FD1C
:101500000023284A07211846FFF7AEFB08B1FFF772
:1015100065FB254A01211848FFF794FB08B1FFF746
:101520005DFB00224FF480413068FFF7E5FB08B116
:10153000FFF754FB00211D4800F082F908B1FFF7C6
:101540004DFB01A8CDE900050B49194B0E22091DE1
:10155000012000F085FA08B1FFF740FB144801991B
:1015600000F04EF908B1FFF739FB00F095F908B12A
:10157000FFF734FBFEE700004826000028010020AA
:10158000612200000D0A2D2D2D2D4E46435F555230
:101590004C205374617274212D2D2D2D0D0A0000E5
:1015A0000805005028030020952400002D19000094
:1015B0008005002010B51C46934200D914462246EF
:1015C000FEF776FF204610BD10B51C46934200D9A9
:1015D00014460A462146FEF77DFF204610BD000056
:1015E0000B4900F1100213464A610A6913448B61EA
:1015F00028B14FF47C73CB614FF4806301E000238A
:10160000CB61C01C104480080B6281F869007047F0
:10161000F006002070B50D4D0D4A00212C7800BF5A
:1016200001EB4103D65CA6420AD113445B788342A6
:1016300006D101EB4100104480782870002070BD75
:10164000491C0F29ECD3022070BD0000F0060020D9
:101650009800002070B50446022920D10620FFF72B
:10166000D9FF00281BD10E4964784B69A20020469F
:10167000934208D88D69103D954204D3C968C3EBE5
:101680008400084403E000F017F8054838301021C2
:10169000FFF7A8FD2046BDE8704000F019B970BD05
:1016A000F0060020034902684A6242688A620089A3
:1016B00088857047F00600202DE9F041264F840010
:1016C000102529463846FEF70CFFA7F13806706949
:1016D000A0420BD9021B31192B4638462431FFF7A3
:1016E00069FFD0F110050444074432D0B069A0422C
:1016F0000CD970693169201A0A1AF1682B46014425
:101700003846FFF757FF2D1A04440744002D20D018
:10171000F069A04209D9021B2B4600213846FFF789
:1017200053FF2D1A0444074413D0306AA04208D94D
:10173000021B2B46FF213846FFF746FF2D1A0744B0
:1017400007D02B463846BDE8F0411A460021FFF786
:101750003BBFBDE8F08100002807002070B50C46B3
:101760000546914201D9032070BD0120FFF752FFC9
:1017700008B1022070BD05B900240248C0E9035435
:10178000002070BDF006002070B5002103230A463A
:101790000C460E4801260CE006FA03F50D43E9B2AB
:1017A0005B1E05D5831883F8481007230021521CBF
:1017B000641C90F86950A542EEDC024482F848109F
:1017C000002100F8681F817070BD0000F006002045
:1017D00010B5040003D00A2901D0032010BD032056
:1017E000FFF718FF08B1022010BD2CB14FEA04002A
:1017F000FFF758FF002010BD0048F9E7A9260000B8
:1018000010B54FF47772FFF7A9FF040013D10B480E
:101810000322016900F8342FFE2902D8417002200A
:1018200005E0FF2242700A0A8270C1700420FFF7AF
:10183000D7FEFFF7A9FF204610BD0000F0060020EC
:1018400070B50E46050005D00020FFF7E3FE18B185
:10185000022070BD042070BD0C4C0D48C4E9015637
:101860001434FFF71FFFFF20A076E076E1202077F9
:10187000112060777C20A0770F20E077034905488E
:10188000FFF7D0FC0028E6D0012070BDF006002054
:10189000A92600006510000010B50420FFF7BAFE6D
:1018A00008B1022010BDFFF7FFFC0028FAD001208C
:1018B00010BD10B5FFF710FD04460920FFF7AAFE82
:1018C00008B1022010BD0CB1012010BD002010BDD8
:1018D000F0B5C208514200EBC1010024124BC1F126
:1018E00007010125042813D305FA01F603EB020CC6
:1018F000F7B29CF848603E4204D0BE438CF8486082
:101900002E4600E0002693F868703E4483F8686035
:10191000491E01D50721521C401C10F0FF0002D0C7
:10192000641C042CDEDBF0BDF006002010B5074B74
:1019300000201C1F4FF40032012904D0022901D1DC
:101940002260186010BD1A60206010BD0C050050A8
:101950000021816070472DE9F843002590468946B3
:1019600007462C4606681CE024B1611C884207D15A
:10197000402106E0012801D0802102E0C02100E0E2
:101980000021D8F800006B46401B00904A463068A2
:1019900000F01DF800280AD10098641C0544814419
:1019A000361DB868A042DFD80020C8F80050BDE856
:1019B000F883D0E901329A4201D3042070470368CA
:1019C00043F822108168491C8160002070472DE98E
:1019D000F84304461F464078237AC618B61D00B166
:1019E000761C31F0C00002D00720BDE8F8833868CB
:1019F000B04201D20420F8E711702078551C014351
:101A00001170207A05F8010BA84660782D1D28B1C9
:101A100005F8010B107840F008001070227A284673
:101A2000E168FEF745FD207A627805442AB1284630
:101A30006168FEF73DFD6078054438686A46801BA2
:101A40000090D4E90430294698470028CDD1009869
:101A500001BAC8F800100098304438600020C4E78C
:101A60002DE9F04107461E460C4615460D48DDF8A7
:101A70001880FFF76DFF8CB12A462146384600F0EA
:101A800027F801460748FFF794FF002807D1424690
:101A90003146BDE8F0410348FFF75DBF0720BDE8D0
:101AA000F08100007000002010B5037A1468A34292
:101AB00001D3042010BD5B1C1360027801F8012BD8
:101AC0000B46027A41681846FEF7F2FC002010BD72
:101AD000024B187059601A7201487047E4060020E2
:101AE0007C00002000F180400068002800D0012028
:101AF000704708B500F18040002101600068009047
:101B000008BD00000549096840F4803001F001116A
:101B1000814201D101207047002070470C04004031
:101B200010B50020FFF7AEF9074C2068401E20607A
:101B3000206820B9FFF7D8FB002060726060BDE824
:101B400010400020FFF7A0B9A006002070B50446A1
:101B50000020FFF797F9104D687A20B19CB16168B9
:101B6000002088470FE01CB12146281DFFF7C8FB65
:101B7000286840B94FF48070FFF7BBFF0120810750
:101B8000C1F8040308602868401C2860BDE8704064
:101B90000020FFF779B90000A006002070B50A4CBC
:101BA000207A08B1852070BD002565602560074852
:101BB00025610126E56006600621284600F008F848
:101BC0002672284670BD0000A006002018050040BF
:101BD0004907090E002806DA00F00F0202F1E022A0
:101BE00082F8141D03E000F1E02282F8001400F0F6
:101BF0001F02012191404009800000F1E020C0F85F
:101C00008012C0F8001170472DE9F0411E4C0746C4
:101C10000D46E07E10B10820BDE8F08107B91B4FEA
:101C2000787F20773846FFF743F965603869206090
:101C30002800174E4FF0000516D0397F207F48B19D
:101C4000C6F81051C6F82051C6F82451C6F84451C0
:101C5000104804E0C6F81C51C6F844510E48C6F8B6
:101C600004030220FFF7B4FF207F08B1082000E042
:101C70000420C6F80005E5752576A5750120E076F7
:101C8000A5760020C8E70000B406002088260000E2
:101C90000020004010030200800002002DE9F04106
:101CA0001F4B1C7F3CB14FF40052B2EB104F02D0DF
:101CB0001020BDE8F081D3F804C00022194D4FF484
:101CC00004764FF40177BCF1000F05D014B1C5F8CC
:101CD000086301E0C5F8087393F817E0BEF1000F40
:101CE00010D01A7E52B1BCF1000F05D014B1C5F866
:101CF000046301E0C5F804731120DAE718610122DA
:101D0000197604E0D9750025D8605D761D761CB182
:101D1000BDE8F04100F066B8BDE8F04100F014B84D
:101D2000B40600200020004010B5064C207F00289B
:101D300006D1A07E002803D100F0BCF90120A076D6
:101D400010BD0000B40600202DE9F05F234DA87EF1
:101D5000104301D100F0AEF9214C686830B14FF466
:101D60000170C4F804030020BDE8F09F4FF00009A3
:101D70004FF4A27AC4F844914FF4927BA846594696
:101D8000204600F041F905464FF48471204600F0EA
:101D90003BF907465146204600F036F9064647EA29
:101DA00006012943EBD055EA060007D100F05AF9A5
:101DB00098F8171098F819008142E0D888F8179021
:101DC0000DB10320D0E70EB10F20CDE798F81A101F
:101DD000012009B12060C6E76060C4E7B4060020B6
:101DE000002000402DE9F05F204C00264FF488735E
:101DF000C4F810614FF4A275C4F84461C4F8340506
:101E0000C4F838158AB1D4F8000240F02000C4F8B4
:101E10000002DFF85C80D8F8040048B14FF4047089
:101E2000C4F804030020BDE8F09F01202060F0E723
:101E30009A46A9464FF4927B5146204600F0EFF8AF
:101E400005464946204600F0EAF80746594620462E
:101E500000F0E5F83D430543EED088F8176008B17F
:101E60000320E0E7002FDDD00F20DCE7002000405A
:101E7000B40600202DE9F047204D0246287F38B1F6
:101E80004FF40050B0EB124F02D01020BDE8F087A5
:101E900000F078F808B11120F8E7A9750023AA60CE
:101EA000AB82287F28B3164C00264FF490709846DA
:101EB000C4F820314FF4AC73C4F85881C4F84425F9
:101EC000C4F848150121A160696881B98246994624
:101ED0005146204600F0A3F807464946204600F048
:101EE0009EF80743F4D000B10F2685F816803046DF
:101EF000CCE7BDE8F04700F005B80000B4060020CC
:101F0000002000402DE9F05F1C4F00254FF48E7A31
:101F10002E46C7F81C514FF00108C7F8088000F0A2
:101F20007BF9174CB815616879B123E05F465146DB
:101F3000484600F069F810B9A08AB842F7D1A08AE3
:101F4000B84204D000F068F901E08346B946A08A9F
:101F5000A17D8842EAD3A08A584501D10F2508E027
:101F60004F465146384600F04FF80028F9D0C7F8E0
:101F70000C80A6752846BDE8F09F000000200040B8
:101F8000B40600200248807D002800D00120704760
:101F9000B406002030B541EA4201DDE9034541EADB
:101FA0008301800041EA042100F1A04041EA05419B
:101FB000C0F8001730BD1CB500220B460092114638
:101FC0000192FFF7E7FF1CBD0321800000F1A04054
:101FD000C0F8001770471CB5002100910B46012284
:101FE00001911146FFF7D6FF1CBD0000002802D169
:101FF00001490120086070470050004008B50021E9
:1020000001600068009008BD4058002800D0012001
:102010007047D0F80403084000D0012070474058B2
:10202000002800D00120704770B5012670044FF0E1
:10203000E0210025C1F88001084C4010C4F8480395
:10204000C4F8080366602F20FEF7E4F9A660044C8C
:102050002F202561FEF7DEF9E57070BD001001400C
:102060003400002009480A490022C37DC1F8082134
:1020700043B1D1F81815437EC268D154417E491C42
:1020800041767047D1F8180570470000B40600206B
:10209000002000401FB501228DF8080004488DF88B
:1020A00000200191D0E90012684690471FBD000052
:1020B000B406002004480021C0F82411C0F808111B
:1020C0000121016070470000002000402DE9F84F19
:1020D000204C00256846D4E903B6FEF789FF804608
:1020E000FFF714F90746A946B8F1000F25D00023E1
:1020F000009ACC46E06819E007680146974202D989
:10210000BA1A026014E0C1F800C0D1F80C80D21BEA
:10211000C8693B448A46B8F1000F07D0F71827F08A
:102120007F47C1E90178CAF81C500D460028E3D169
:10213000E0602846FFF748F904E02846FFF744F935
:1021400000B917B15846FEF7FDFE84F80490BDE8CB
:10215000F88F0000340000200D4B10B5D96831B164
:1021600002680C68A24204D8A21A0A60C161D86051
:1021700010BD0B4603E00B46C969121B21B10C6868
:102180009442F8D3A41A0C600260C161D86110BDFA
:10219000340000202DE9F0411D4DEC68002C35D0B5
:1021A0001C48002700682969B846401A20F07F467D
:1021B0002068B04215D82246361A0744E469107CDC
:1021C00068B182F810806B6933B1D2E90501984794
:1021D00028B1FEF703FD02E0D2E905108847002C84
:1021E000E6D16978A878814206D1401CC0B2A870B7
:1021F000022801D185F802800548A978183040F8F6
:102200002170BDE8F0411420FEF792BABDE8F081DC
:102210003400002004150140064A0020C2F81C01C9
:102220000548838A8168C95C838A5B1C8382C2F803
:102230001C15704700200040B40600201FB5002187
:102240008DF8080005488DF80010826801928175AC
:10225000D0E90012684690471FBD0000B406002078
:1022600070B5017841B1012901D002292BD1406814
:10227000BDE87040FEF7B2BC144D134E28783044D0
:10228000FEF77AFD2878401CC4B230192C7010F883
:10229000010C232803D00A2801D0402C13D30B486B
:1022A0002021401CFEF71DF90848621E0649401C0B
:1022B000FEF7FEF8054906A0491CFEF7F3FB00F007
:1022C00065F90020287070BDE800002000000020A3
:1022D00055524C5F537472696E67203A2025732003
:1022E0000D0A00007CB50178264D012909D002298C
:1022F0002CD0002929D129462348FEF77AFC80B347
:1023000034E04068017820481038FEF78DFC1E4C00
:10231000103C20B101218DF80010019007E0A06869
:10232000E168081A012805D100208DF800006968CD
:1023300068468847A068E168081AA188884204D8DE
:1023400010480121401CFFF7A9FC7CBD02218DF83B
:102350000010C06801900B480121401CFFF79EFC53
:102360000CE0FFE701210748FFF784FD064881687C
:10237000C0688842E9D103208DF80000696868468A
:1023800088477CBD24000020900600202DE9FF41F5
:102390003E4D4FF400712846FFF73BFE01273C4CB1
:1023A0004FF40178002600B34FF492712846FFF7EE
:1023B0002BFED0B1C5F82461C5F80883A07E00B912
:1023C0006F6002208DF80000D5F88004C5F8800405
:1023D0000390E07D8DF80800E0680190E6752676B0
:1023E000D4E900126846904724E004212846FFF70C
:1023F00010FEF8B14FF484712846FFF705FEC8B10E
:10240000FFF730FEE07D617E884213D1227E3AB133
:10241000607EE168E2752269E2602676667607E012
:10242000A07E00B96F60C5F80883E675607EE1683C
:10243000FFF730FE4FF48E712846FFF7E5FD58B1E7
:10244000A18AA07D814202D2FFF7E6FE04E0C5F832
:102450001C6108B1FFF7F2FE4FF4A2712846FFF7A6
:10246000D3FD00280FD0C5F84461A07E00B12F60D5
:10247000E07D002807D0E675607EE16804B0BDE825
:10248000F041FFF707BEBDE8FF81000000200040DB
:10249000B406002006484FF000710068044A8143EA
:1024A000121D1160111D00F00070086070470000DF
:1024B000040500507FB5334C4FF492712046FFF76E
:1024C000AEFD314D0026B0B1C4F8246102208DF874
:1024D0000000D4F88004C4F880040390D4F83C05CC
:1024E0008DF80800E8680190EE752E76D5E90012A7
:1024F000684690471FE04FF488712046FFF78FFD34
:10250000C8B1C4F81061D4F83C05E97DC0B281427D
:1025100011D12A7E5AB1E968D4F8003223F02003A1
:10252000C4F80032EA752A69EA602E7601E0EE7599
:10253000E968FFF7AFFD4FF4A2712046FFF76FFD8A
:1025400050B1C4F84461E87D30B1EE75D4F83C0573
:10255000E968C0B2FFF79EFD4FF490712046FFF787
:102560005EFD00280CD0C4F82061A87D002807D0AB
:10257000D4F84C0504B0C0B2BDE87040FFF75EBEB1
:102580007FBD000000200040B40600201CB5FFF70E
:1025900090F908B1FEF722FB4FF480710E480191CB
:1025A000FDF79FFF01A800900B4B20220B49012053
:1025B000FFF756FA08B1FEF711FB07480199FFF73C
:1025C0001FF908B1FEF70AFBFFF766F9002801D0F2
:1025D000FEF704FB1CBD0000800500200100002068
:1025E000EFF30580C005C00D13D0103840B20028AD
:1025F00006DA00F00F0000F1E02090F8140D03E07F
:1026000000F1E02090F800044009022803D00628D9
:1026100003D00220704700207047012070474278A5
:102620008378521CD2B2934200D1002203789342A5
:1026300001D1002070470A704168407800EB4000EB
:1026400001EBC00070470000C80000206E6F72648C
:10265000696373656D692E636F6D00000806050779
:102660000000000000E0D7010600000008000000A4
:10267000070000000500000000000000000000004E
:102680000000D6010600000006000000080000005F
:10269000070000000500000000000000000000002E
:1026A0000000D601060000005500010203040506E3
:1026B00007080900D426000000000020C800000020
:1026C000C40A00009C270000C800002098260000D3
:1026D000D40A00000062616964752E636F6D0000AA
:1026E00000000000000000000000000000000000EA
:1026F00000000000000000000000000000000000DA
:1027000000000000000000000000000000000000C9
:1027100000000000000000000000000000000000B9
:1027200000000000000000000000000000000000A9
:102730000000000000000000000000000000000099
:10274000000000006C0000200100000000000000FC
:10275000010000000000000001000000A8260000A9
:10276000A91A0000E40600200090D0030406050426
:102770000803040902050704050803050902030507
:102780000403090200000101030101010202040324
:0C279000020A000201020209020000001F
:0400000500000401F2
:00000001FF
