:100000000000012011050000390500003B0500003B
:100010003D0500003F050000410500000000000014
:100020000000000000000000000000004305000088
:1000300045050000000000004705000049050000DC
:100040004B0500004B0500004B0500004B05000070
:100050004B0500004B0500004B0500004B05000060
:100060004B0500004B0500004B0500004B05000050
:100070004B0500004B0500004B0500004B05000040
:100080004B0500004B0500004B0500004B05000030
:100090004B0500004B0500004B0500004B05000020
:1000A0004B0500004B0500004B0500004B05000010
:1000B0004B0500004B0500000000000000000000A0
:1000C0004B0500004B0500004B0500004B050000F0
:1000D0004D0500004B0500004B050000000000002E
:1000E0000000000000000000000000000000000010
:1000F0000000000000000000000000000000000000
:1001000000000000000000000000000000000000EF
:1001100000000000000000000000000000000000DF
:1004000010B5054C237833B9044B13B10448AFF34E
:1004100000800123237010BD780000200000000040
:10042000481B0000084B10B51BB108480849AFF342
:1004300000800848036803B910BD074B002BFBD0B0
:10044000BDE81040184700BF00000000481B000036
:100450007C0000207000002000000000154B002BE5
:1004600008BF134B9D46A3F5803A00218B460F46EB
:100470001348144A121A00F02BFB0F4B002B00D02C
:1004800098470E4B002B00D0984700200021040015
:100490000D000D48002802D00C48AFF3008000F09A
:1004A000F1FA2000290000F0B9FA00F0D7FA00BFF5
:1004B0000000080000000120000000000000000013
:1004C00078000020A40000200000000000000000D0
:1004D00008B50B20012100F00DFA0B200121BDE829
:1004E000084000F089BA00BF08B500210B2000F0D9
:1004F00083FA4FF47A7000F065F80B20012100F0C8
:100500007BFA4FF47A70BDE8084000F05BB800BF9A
:100510000649074A074B9B1A03DD043BC858D050D5
:10052000FBDC00F09BF8FFF799FF0000681C00005F
:100530000000002078000020FEE7FEE7FEE7FEE76F
:10054000FEE7FEE7FEE7FEE7FEE7FEE70C4AD2F82D
:100550000431A3B110B40B4BD3E9000110F180704A
:1005600041F10001C3E90001D3E90001002401F0D9
:10057000FF01C3E90001C2F804415DF8044B704774
:100580000040024098000020F0B50B4B0B4E0C4889
:10059000012202214FF0000E1027002400255A608E
:1005A0009A60C3F808E5C3F84413C3F804137760EE
:1005B000C0E900451A60F0BD0040024000E100E0E3
:1005C000980000202DE9F0432249DFF88CC0D1F8D3
:1005D0000445DCE9002312EB040843F100094FEA6B
:1005E00089044FEA880244EA98735D01540145EAA0
:1005F000D265A21A65EB030312EB080243EB090371
:10060000DC00D50044EA52744FEAD53E4EEA444E2F
:10061000D1F80445DCE90023121943F100034FEA45
:100620008308940048EA92756F01660147EAD4672F
:10063000341B67EB050512196B41DC00D50044EA59
:100640005274EA0B42EA4442CEEB02028242DFD30A
:10065000BDE8F0830040024098000020F0B5924BC6
:100660001B78062B0FD04FF01023D3F80022002A5E
:10067000C0F2EA80D3F80432002BC0F2E5808B4B45
:100680008B4A1A60F0BD8B4B1B681D07EBD18A4B60
:100690001B6803F0F003302B00F0D280864B1B6800
:1006A00003F0F002302A6FD003F0E003402B6BD050
:1006B000814B1B6803F0F003302B00F0B1807E4BC0
:1006C0001B6803F0F002302A6FD003F0E003402BE8
:1006D0006BD0794B1B6803F0F003302B00F0928055
:1006E000754B1B6803F0F003302B72D0724B1B6804
:1006F00003F0F003502BB6D14FF080526F4BD2F87D
:100700000414C3F82015D2F80814C3F82415D2F83D
:100710000C14C3F82815D2F81014C3F82C15D2F80D
:100720001414C3F83015D2F81814C3F83415D2F8DD
:100730001C14C3F84015D2F82014C3F84415D2F89D
:100740002414C3F84815D2F82814C3F84C15D2F86D
:100750002C14C3F85015D2F83014C3F85415D2F83D
:100760003414C3F86015D2F83814C3F86415D2F8FD
:100770003C14C3F86815D2F84014C3F86C15D2F8CD
:100780004424C3F870256EE74D4B474A1B68127826
:100790004C49C3F34233062A0B607FF464AF454BE8
:1007A0001B681C077FF45FAF82E73F4B1B784FF05D
:1007B00080420021062BC2F80C11C2F81011C2F8B9
:1007C00038157FF450AF3B4B1B6819077FF44BAFD4
:1007D0007FE7354B3C4F1A783C4D3D483D4B4FF041
:1007E000050E012600243F21062AC7F800E02E60EE
:1007F000046019607FF437AF2E4B1B681B077FF432
:1008000032AF73E7284B344A1B780321062B116063
:100810007FF429AF274B1B681A077FF424AF5FE7EB
:100820002E4A2149D368097823F080730629D360C2
:100830007FF419AF1F4B1B6818077FF414AF3EE716
:10084000274B284A1A6029E7274B0122C3F80425C1
:10085000D3F80024002AFBD04FF0102315222249A0
:10086000C3F80022D1F80034002BFBD04FF0102346
:1008700015221D49C3F80422D1F800241A4B002A7E
:10088000FAD00022C3F80425D3F80024002AFBD0B4
:10089000BFF34F8F1549164BCA6802F4E062134349
:1008A000CB60BFF34F8FFEE7E00F00F000000020A9
:1008B0000090D003E40F00F0E80F00F000C000400B
:1008C000440200103C05004010560040885600408D
:1008D0001856004014560040A0050040F0ED00E01E
:1008E00074C007400DF0ADBA00E0014000ED00E03B
:1008F0000400FA0510B50C4600F0AEF81E2812D818
:100900000C2C10D8DFE804F06F665E564E463D347E
:100910002B221910070000F5E0704FF0A04340F2C1
:10092000017243F8202010BD00F5E0704FF0A043A5
:1009300040F2016243F8202010BD00F5E0704FF056
:10094000A04340F2015243F8202010BD00F5E070B2
:100950004FF0A04340F2014243F8202010BD00F5C3
:10096000E0704FF0A04340F2013243F8202010BD68
:1009700000F5E0704FF0A04340F2012243F8202040
:1009800010BD00F5E0704FF0A04340F2011243F8B3
:10099000202010BD00F5E0704FF0A043012243F885
:1009A000202010BD00F5E0704FF0A043042243F872
:1009B000202010BD00F5E0704FF0A043002243F866
:1009C000202010BD00F5E0704FF0A0430E2243F848
:1009D000202010BD00F5E0704FF0A04340F203323C
:1009E00043F8202010BD00F5E0704FF0A043022234
:1009F00043F8202010BD00BF38B504460D4600F076
:100A00002BF81E2C06D801234FF0A042834015B9C5
:100A1000C2F80C3538BDC2F8083538BD08B500F04D
:100A200007F8FFF7B1FDFFF753FDFFF75DFDFCE7AA
:100A30004FF0804301220020C3F818251946C3F85F
:100A400004019A60D1F804314FF08042002BF9D0B4
:100A50000023C2F804317047704700BF08B5074B48
:100A6000044613B10021AFF30080054B1868836A78
:100A700003B19847204601F055F800BF0000000080
:100A8000441B000070B50E4B0E4CE41AA410002558
:100A90001E46A54204D056F8253098470135F8E7A0
:100AA00001F042F8084C094BE41AA41000251E4638
:100AB000A54204D056F8253098470135F8E770BDB7
:100AC00068000020680000206C0000206800002002
:100AD00002440346934202D003F8011BFAE7704731
:100AE00003685A004CBF43F0004323F0004318440E
:100AF000704700BF2DE9F04F83B099B34B1E1746E6
:100B0000054601939846002606EB080404EBD474CE
:100B100064104FEAC40A05EB0A0B5846FFF7E0FFE2
:100B2000019B8146A3420AF1080028440ED0FFF73A
:100B3000D7FFB94500F1FF3004D9B4420CD004F11D
:100B4000FF38E1E7B84203D2661CDDE7B945F4D8C7
:100B5000584603B0BDE8F08F4FF0000B584603B085
:100B6000BDE8F08F8B46584603B0BDE8F08F00BF5C
:100B7000012807D0022807D0044B00280CBF1846D4
:100B80000020704702487047024870477D120000FD
:100B9000811200008512000030B5244B83B004465A
:100BA0008D1E7BB3284601A9AFF3008020B30199C5
:100BB0002A46FFF79FFF0546F0B1FFF791FF6B68EC
:100BC000A064012B12D0002B05F1040020DBFFF7FD
:100BD00087FF0023E06423650368002B1CDBFFF71D
:100BE0007FFF00232061184603B030BD002323613E
:100BF0000523184603B030BD00232361092318469E
:100C000003B030BD0A490B48091AC9100191CFE75A
:100C10000123E0642365DFE7C3F30360FFF7A8FF68
:100C2000002820610CBF09230023DCE7000000003E
:100C3000681C0000881B00000368DA0710B5044632
:100C400006D49B0700F1480009D500F085FC236815
:100C5000590709D51A070ED5DB0613D510BD00F0CC
:100C600073FC23685907F5D404F1D00000F07CFC34
:100C700023681A07F0D404F5A87000F07DFC2368FF
:100C8000DB06EBD404F5E870BDE8104000F0B8BC1A
:100C900003680BB118447047184670470920704725
:100CA000704700BF70B504460D4608E02B6C6361C9
:100CB0000120236921462A469847082808D1204662
:100CC000296CFFF769FF06460028EFD000F0C4FE4C
:100CD0000728FBD13046296CFFF7E2FF281D00F002
:100CE00027FC00BF2DE9F0470C1D064617460FCC28
:100CF000ADF5727D03AD0FC50FCC0FC50FCC0FC581
:100D000094E80F0002AC4FF0000ED6F80C80D6F835
:100D1000189085E80F003046216CC4F800E0FFF71A
:100D20003BFF002F05460CBF09270A277DB1A36BA7
:100D300047F010018DE8100201206364324633460B
:100D4000C04778BB28460DF5727DBDE8F087236C5F
:100D5000736121464FF4F0727AA800F084FE336983
:100D600031467AAA38469847889B82468DE8100219
:100D700039466364012032463346C04790B9204665
:100D80007AA94FF4F07200F06EFEBAF1080F06D1A6
:100D90003046216CFFF700FF09270546C6E7BAF188
:100DA000070F04D009200DF5727DBDE8F0872846B5
:100DB000216CFFF775FF03A800F0BAFB406C704789
:100DC000F0B5CB6B0B640E1D0F4604460FCEF9B089
:100DD00001AD0FC50FCE0FC50FCE0FC596E80F00A2
:100DE0004FF0FF3685E80F00009606E023692146A4
:100DF0006A4698470828054608D120461099FFF70B
:100E0000CBFE0028F2D0092079B0F0BD6846FFF78C
:100E100013FF062DF7D120463946FFF743FF00BFE9
:100E200030B4DD6BC160826119461D64002230BCA4
:100E300058E700BF70B5C66843690B6404460D46A9
:100E400026B10122FFF74EFF00F006FE036921469E
:100E500002202A469847072807D0082803D12046B1
:100E60002946FFF71FFF00F0F7FD3046296CFFF71A
:100E700017FF281D00F05CFBC2681AB1CA6B0A6438
:100E800000222FE79CE700BF704700BF836813B1C3
:100E9000014601201847704700B5042907D8DFE84C
:100EA00001F00309060909000BB90F2A05D9022030
:100EB0005DF804FB01205DF804FB00EB820218469C
:100EC0005368019A13605DF804FB00BF00B585B05C
:100ED0000A4603AB002100930B46FFF7DDFF0398A2
:100EE00005B05DF804FB00BF00B5042907D8DFE8B2
:100EF00001F00309060909000BB90F2A05D90220E0
:100F00005DF804FB01205DF804FB019900EB82020F
:100F10000968516018465DF804FB00BF10B584B045
:100F200004AB0C4643F8042D0021009322460B46E7
:100F3000FFF7DAFF04B010BDF0B5D36B1364151DD5
:100F400007460E460FCDADF50F7D17AC0FC40FCD84
:100F50000FC40FCD0FC495E80F004FF0FF3584E8A4
:100F60000F00169510E016A8FFF7D8FF314616A817
:100F7000B847694616AA78B9049B082098470528FF
:100F800004460AD0092807D026996846FFF704FED0
:100F90006A460C210028E6D0092416A8FFF74CFE6B
:100FA00020460DF50F7DF0BD2DE9F04F0D46C96CC3
:100FB0008BB00C1D096807919046089400F0030956
:100FC0001E46002B64D10902032307918DF825608A
:100FD0008DF824302B6DB9F1020F08BFAC6B13F004
:100FE000010343D100F00800C2B2039201932768C5
:100FF000002F3DD0022E47D02788B4F802A0043439
:10100000AB6C2AF0010B40460F219B44FFF75EFFBB
:10101000834537D827F001039B4458452CBF002057
:1010200001200AF0010A07F0010747EA4A0ABAF16B
:10103000010F43D03AD3BAF1020F1FD1236823F036
:1010400000420292B9F1000F7BD138B1039A002A15
:1010500000F08380029A002A00F0A680002B7ADB41
:10106000029B03F1010A04EB8A04C0E70023019309
:10107000022E40DDFFF712FE002842D009200BB0FF
:10108000BDE8F08F0020CCE7D4F804A00834B7E71F
:10109000022B9FDC0B0CDFB2090402228DF82530F5
:1010A00004EB870407918DF8242093E7B9F1000F32
:1010B00002D0002840F0AD80043498E7B9F1000F69
:1010C00026D1B0B194E80C00D70F9A1CD6D005F108
:1010D00058020133069200F09280201DFFF7D8FDE0
:1010E0003A46014606AB2846AFF30080002840F0A0
:1010F000B58008347BE7404607A900F01BFB0028B9
:10110000BCD1019B002B59D108200BB0BDE8F08F5A
:1011100040460D212F6AFFF7D9FE8742E9D1AB6A1D
:101120009C42E6D12046FFF7DBFC0F2102464046F9
:10113000FFF7F4FE40462A460021FFF7EFFE0720A6
:101140009DE740460D212F6AFFF7C0FE874245D03C
:101150002368002B84DA043482E7029B23B305F171
:101160005803059604F1040A039FDDF808B0CDF892
:1011700010901E4602E0D9454F4615D050460696BF
:10118000FFF786FD0022014606AB2846AFF300803C
:1011900007F101090AF1040A0028ECD0029BDDF8EE
:1011A0001090059E9F42D3D140460D21FFF78EFE41
:1011B000069B2862AC626B62062060E70F21404606
:1011C000FFF784FE0E2102464046FFF7A7FE404689
:1011D0000F21294AFFF7A2FE072050E7AB6A9C4285
:1011E000B6D104220027A3180299A962EF622A63EC
:1011F0006B632368BB421FDB0123019330E740464A
:101200000D21FFF763FE2862069B6B62AC6206202D
:1012100035E72046FFF764FC04340646AC632846F5
:10122000AFF3008000283FF429AF404632460F213B
:10123000FFF774FE072022E70846013004EB800028
:10124000FFF74EFC0F2102464046FFF767FE40467F
:1012500039462A46FFF762FE072010E707460D21B0
:101260004046FFF733FE022F2862CDD12B46069A67
:1012700043F82C2F6B62C9E700000000002393E6BF
:10128000012391E602238FE6F0B50546C5B0042997
:101290000CD8DFE801F056030B300E00012B4FEAAB
:1012A000124496B265D0052B00F08480022045B030
:1012B000F0BD002BFAD1102AF8D82B68DC0600F11B
:1012C000EB8022AE3046019200F0A4F9A86B019A9F
:1012D0000023012404FA03F1114203D0016846F807
:1012E000231004300133042BF4D1A863304600F0FE
:1012F00087F90020DBE7032BD8D1140C97B23B19F8
:10130000102BD3D82B681E0700F1E68022AE3046A2
:101310007F0000F053F906EBC4027B1EAC6B57B1A3
:10132000043A214651F8040B42F8040F013B581CC3
:10133000F8D104EB87043046AC6300F01DF90020BF
:10134000B5E7002BB2D1AC6B97B2281D012606FA87
:1013500003F1394203F1010302D021680160043432
:10136000102B00F10400F2D112F4005020D1AC6334
:101370009DE73219102A99D80F2C97D82968C807E9
:101380004FF0000755D422A8019300F0E1F8019B2B
:1013900019E008463746012B00F098800F2CA8630F
:1013A00002D822A800F0D8F817B102A800F0DCF8A3
:1013B00000207CE73719202F3FF678AF0F2C30D96B
:1013C0003746002E45D1A96B3246002EE1D00027CA
:1013D00044A84FEA420C00EBC4000CF1FF328C38F9
:1013E0008E465EF8046B40F8046F013A561CF8D143
:1013F00001EB8C00002FCED0102C224644A938BF20
:10140000102201EBC202A2F5C47201467800043A30
:1014100001EB800051F8046B42F8046F8142F9D16E
:10142000B9E7102F42D92A68D007A7F11007114653
:1014300010D521F00102052B2A60019328465BD0CC
:1014400021F0030140F8481B00F082F8019B002FB7
:101450004AD02A6851075BD4012B63D00F2C04D8E3
:1014600022A8019300F07CF8019B002FABD002A8CA
:10147000019300F07DF8019BA96BC4F11002002AD2
:10148000A6DC102C224644A838BF102200EBC20272
:10149000A2F5C4727800BAE723F010032B6005F5BB
:1014A000E870019200F0B6F8019A0AE72968C807C7
:1014B0001DD521F00102284642F0020240F8482BD7
:1014C0000193002700F04CF8019BC9E70430A863A2
:1014D00022A800F039F86BE723F008032B6005F52C
:1014E000A87000F06BF811E7012B3FF44CAF0F2C04
:1014F00098BF0027B4D966E742F0020240F8482BB3
:1015000000F02EF8019B002FAAD02A685107A5D51C
:10151000284622F0040240F8D02B019300F028F86E
:10152000019B99E722A8019300F012F8019BA3E721
:1015300000F1340191E838009C46A6464CF8045D61
:1015400090E8FF0FE54600BD90EC210B704700BF0F
:1015500080EC210B704700BF90EC200B704700BF60
:1015600080EC200B704700BFD0EC200B704700BF11
:10157000C0EC200B704700BFF0EC0201F0EC021150
:10158000F0EC0221F0EC0231F0EC0241F0EC0251FF
:10159000F0EC0261F0EC0271F0EC0281F0EC0291EF
:1015A000F0EC02A1F0EC02B1F0EC02C1F0EC02D1DF
:1015B000F0EC02E1F0EC02F1704700BFE0EC020158
:1015C000E0EC0211E0EC0221E0EC0231E0EC02413F
:1015D000E0EC0251E0EC0261E0EC0271E0EC02812F
:1015E000E0EC0291E0EC02A1E0EC02B1E0EC02C11F
:1015F000E0EC02D1E0EC02E1E0EC02F1704700BF68
:10160000B0FC0181B0FC0191B0FC01A1B0FC01B1C2
:10161000704700BFA0FC0181A0FC0191A0FC01A1CA
:10162000A0FC01B1704700BFEC4600B52DE90050A9
:101630002DE9FF1F4FF000032DE90C0001A9FFF772
:10164000BFFBDDF840E012B0704700BFEC4600B5CC
:101650002DE900502DE9FF1F4FF000032DE90C008C
:1016600001A9FFF7E7FBDDF840E012B0704700BFCB
:10167000EC4600B52DE900502DE9FF1F4FF00003A7
:101680002DE90C0001A9FFF7F7FBDDF840E012B0EF
:10169000704700BFEC4600B52DE900502DE9FF1F53
:1016A0004FF000032DE90C0001ABFFF7B9FBDDF8AB
:1016B00040E012B0704700BFEC4600B52DE9005085
:1016C0002DE9FF1F4FF000032DE90C0001AAFFF7E1
:1016D00033FCDDF840E012B0704700BF037A1BB95D
:1016E000437A43B9B02070475A1E036802721A0247
:1016F0000260180E70474268013B10B443721368D1
:101700000321141D01721A02446002605DF8044B4B
:10171000180E704700B585B003AB002100930C2272
:101720000B46FFF7B9FB039805B05DF804FB00BF5B
:10173000F0E700BF2DE9F043064685B00D464FF0B7
:1017400000082846FFF7CAFFB028044600F0B5801D
:1017500020F07F0111F0FF0120D000F0F003802B7A
:101760007AD0902B36D0A02B49D0B02B5CD0C02B98
:1017700000F0898000F0F803D02B0BD100F00702B5
:10178000013242F40022304601210523FFF77CFD9F
:101790000028D6D0092005B0BDE8F0830DF10C0972
:1017A0000B468700CDF8009030460D22FFF774FB02
:1017B000FFB2039BCDF80090043760064FF00001A4
:1017C0004CBFDF1BFF1830460B460D220397FFF777
:1017D0008BFBB6E700F00D030D2BDBD003AF002130
:1017E00000F00F020B4600973046FFF755FB002133
:1017F00000970B4630460D22FFF776FBA1E7C34367
:1018000003F007034FF47F621A41010702F47F627D
:101810004FF0000148BF42F480420B463046FFF7CC
:1018200033FD0028B6D18CE7B1284CD0B2285DD06A
:10183000B32800F08A8000F0FC03B42BAAD000F09B
:1018400007020132012142F400220B463046FFF725
:101850001BFD00289ED174E72846FFF73FFF2402B6
:101860002043B0F5004F95D004010021A2B20B46F1
:101870003046FFF709FD00288CD114F4004F18BF43
:101880004FF001085DE7C62872D0C7287AD000F073
:10189000F803C02B00F08980C82800F0A580C92873
:1018A0007FF478AF2846FFF719FF00F00F020132EE
:1018B00000F0F00042EA003265E7B8F1000F00F0F6
:1018C0008280002067E72846FFF708FF02460028CD
:1018D0003FF460AF10F0F0017FF45CAF30460B4690
:1018E000FFF7D2FC00287FF455AF2AE700210DF165
:1018F0000C090D220B46CDF800903046FFF7CCFACC
:101900002846FFF7EBFE02064FF002040CD5039BBE
:1019100000F07F00A040034428460393FFF7DEFE5B
:10192000030604F10704F2D4039BCDF8009000F005
:101930007F00A04003F5017300211C180D220B4607
:1019400030460394FFF7D0FAFBE62846FFF7C6FEC1
:1019500000F00F02013200F0F000012142EA0032F3
:101960000B463046FFF790FC00287FF413AFE8E603
:101970002846FFF7B3FE00F00F02013200F0F0003E
:101980000321EBE72846FFF7A9FE024600283FF4B3
:1019900001AF10F0F0037FF4FDAE30460421FFF7F5
:1019A00073FC00287FF4F6AECBE600F00F020132A4
:1019B000032142F420220B463046FFF765FC002845
:1019C0007FF4E8AEBDE603AC41460E2243460094E8
:1019D0003046FFF761FA0094304641460F224346F5
:1019E000FFF782FA4046D6E62846FFF777FE00F07A
:1019F000F00200F00F031032013343EA0232C2E674
:101A000010B5C36C84B05A6803208DF80C00DC79E3
:101A10008DF80D4012020833084601A90192029385
:101A2000FFF788FE04B010BD08B5FFF781FE806C9B
:101A300008BD00BF08B5FFF77BFEC36CD87903EB88
:101A40008000083008BD00BF08B500F005F800BFF1
:101A500008B500F001F800BF08B5062000F036F820
:101A6000012000F05FF810B5431E0A44914204D0F3
:101A700011F8014B03F8014FF8E710BD1F2938B5E5
:101A800004460D4604D9162303604FF0FF3038BDDD
:101A9000426C12B152F821304BB9204600F030F8B8
:101AA0002A4601462046BDE8384000F017B8012B11
:101AB0000AD0591C03D116230360012038BD00242D
:101AC00042F8254028469847002038BD024B014681
:101AD0001868FFF7D3BF00BF6400002038B5074C7B
:101AE0000023054608461146236000F013F8431C06
:101AF00002D1236803B12B6038BD00BFA0000020D5
:101B000000F000B8024B58221A604FF0FF307047C7
:101B1000A0000020024B58221A604FF0FF3070479F
:101B2000A0000020FEE700BFF8B500BFF8BC08BC6D
:101B30009E467047F8B500BFF8BC08BC9E4670478B
:0C1B400043000000040000200000000032
:101B4C0008B10181B0B000840000000008B101812F
:101B5C00B0B000840000000008B10181B0B0008476
:101B6C000000000008B10181B0B00084000000004A
:0C1B7C0008B10181B0B00084000000003E
:101B8800D4E8FF7F0100000040E9FF7FB8FFFF7F36
:101B980050E9FF7FBCFFFF7F70E9FF7F0100000075
:101BA80074EEFF7FB8FFFF7F80EEFF7F010000002B
:101BB800E0EFFF7FB0A9028078F0FF7FB0B0A88087
:101BC800C8F0FF7F01000000D4F0FF7FB0B0AA800A
:101BD8000CF1FF7FAE71B280DCF1FF7F01000000E5
:101BE800D8F1FF7FAB3F388030F2FF7F0100000063
:101BF8003CF2FF7FB0B0AA8078F2FF7F01000000BE
:101C080030F3FF7FAB0EB28098F3FF7FB0AF0A804E
:101C180064F6FF7F0100000068F6FF7FAB3F048099
:101C280008F9FF7F01000000E4FAFF7F00840480C8
:101C3800F8FAFF7F01000000F4FAFF7FB0AD0480DE
:101C4800B8FDFF7FB0A80380D8FDFF7F1CFFFF7F92
:101C5800DCFDFF7F20FFFF7FE8FDFF7F0100000024
:101C68000090D00300000000000000000000000009
:101C7800000000000000000000000000000000005C
:101C880000000000401B00000000000000000000F1
:101C9800000000000000000000000000000000003C
:101CA800000000000000000000000000000000002C
:101CB800000000000000000000000000000000001C
:101CC80000000000040000202504000001040000BA
:041CD8000000000008
:0400000300000511E3
:00000001FF
