:020000040000FA
:10000000082000208D0400009504000097040000E3
:10001000990400009B0400009D0400000000000003
:100020000000000000000000000000009F0400002D
:10003000A104000000000000A3040000A5040000CB
:10004000A7040000A7040000A7040000A704000004
:10005000A7040000A7040000A7040000A7040000F4
:10006000A7040000A7040000A7040000A7040000E4
:10007000A7040000A7040000A7040000A7040000D4
:10008000A7040000A7040000A7040000A7040000C4
:10009000A7040000A7040000A7040000A7040000B4
:1000A000A7040000A7040000A7040000A7040000A4
:1000B000A7040000A70400000000000000000000EA
:1000C000A7040000A7040000A7040000A704000084
:1000D000A7040000A7040000A7040000000000001F
:1000E0000000000000000000000000000000000010
:1000F0000000000000000000000000000000000000
:1001000000000000000000000000000000000000EF
:1001100000000000000000000000000000000000DF
:10040000DFF80CD000F054F8004800475507000012
:1004100008200020401E00BF00BF00BF00BF00BF7B
:1004200000BF00BF00BF00BF00BF00BF00BF00BFD4
:1004300000BF00BF00BF00BF00BF00BF00BF00BFC4
:1004400000BF00BF00BF00BF00BF00BF00BF00BFB4
:1004500000BF00BF00BF00BF00BF00BF00BF00BFA4
:1004600000BF00BF00BF00BF00BF00BF00BF00BF94
:1004700000BF00BF00BF00BF00BF00BF00BF00BF84
:1004800000BF00BF00BFC5D17047000006488047CD
:1004900006480047FEE7FEE7FEE7FEE7FEE7FEE769
:1004A000FEE7FEE7FEE7FEE7D504000001040000DA
:1004B000064C074D06E0E06840F0010394E80700B1
:1004C00098471034AC42F6D3FFF79EFFD8070000E0
:1004D000F807000070B58A480023021D0178101D3E
:1004E0000125062907D11478240704D10478C4F320
:1004F0000314032C02D0062904D00FE0824E814C55
:1005000074670EE01478240708D10478C4F3031448
:10051000032C06D0042C04D0052C02D0062909D0C7
:1005200010E04FF08054D4F84442784EC4F3423483
:10053000346002E01478240704D10478C4F303146F
:10054000032C02D0062906D011E0714C266826F053
:10055000807626600EE01478240708D10478C4F36E
:100560000314032C06D0042C04D0052C02D0062939
:100570000AD011E04FF08044C4F80C31C4F81031B7
:10058000624C241F236002E01478240704D104780D
:10059000C4F30314032C02D0062905D00CE05B4AF7
:1005A0000321643211600AE01478240704D104782E
:1005B000C4F30314032C02D006290DD06AE0554A77
:1005C00005211160534978310D60524908310B60A3
:1005D0003F21121D116002E0117809075AD10078FD
:1005E000C0F30310052855D14B4800684B490860FB
:1005F0004948001D0068091D086047480830006828
:10060000091D086044480C300068091D0860424814
:1006100010300068091D08603F4814300068091D4B
:1006200008603D48183000683C49203108603A486D
:100630001C300068091D0860374820300068091D1B
:100640000860354824300068091D086032482830A9
:100650000068091D086030482C300068091D0860DA
:100660002D48303000682D49403108602A48343028
:100670000068091D0860284838300068091D0860B6
:1006800025483C300068091D086023484030006858
:10069000091D08601E487438016841F4700101604A
:1006A000BFF34F8FBFF36F8F4FF01021D1F80C02C3
:1006B000C00720D01A4A15601A480468002CFCD0E4
:1006C000D1F80C4224F00104C1F80C420168002961
:1006D000FCD0136001680029FCD0BFF34F8F0C4899
:1006E000F0380168104A01F4E06111430160BFF382
:1006F0004F8F00BFFDE70E490C48086070BD000039
:10070000E00F00F00DF0ADBA00C007403C0500401E
:10071000FCED00E0105600400404001020C500402D
:1007200004E5014000E401400400FA050090D00314
:100730000000002002E008C8121F08C1002AFAD1F8
:1007400070477047002001E001C1121F002AFBD151
:10075000704700000020174D0322295C890001F139
:10076000A041C1F80027401CC0B20228F5D3DFF831
:10077000488001244FF4FA7608F1040717E0295C59
:1007800004FA01F11160401CC0B20228F7D33046D0
:1007900000F014F8002039462A5C04FA02F20A60DC
:1007A000401CC0B20228F7D3304600F007F8002002
:1007B0004246E4E7D60700000805005031B540F294
:1007C000E73404E0401E00902046FFF723FE009827
:1007D0000028F7D138BD0B19F807000000000020F1
:1007E0000400000034070000FC07000004000020A3
:0C07F00004200000440700000090D0032B
:0400000500000401F2
:00000001FF
