:020000040000FA
:1000000038200020150400001D0400001F0400001B
:10001000210400002304000025040000000000006B
:1000200000000000000000000000000027040000A5
:1000300029040000000000002B0400002D04000033
:10004000A10400002F0400002F0400002F04000072
:100050002F0400002F0400002F0400002F040000D4
:100060002F0400002F0400002F0400002F040000C4
:100070002F0400002F0400002F0400002F040000B4
:100080002F040000F90400002F0400002F040000DA
:100090001D0500002F0400002F0400002F040000A5
:1000A0002F0400002F0400002F0400002F04000084
:1000B0002F0400002F0400000000000000000000DA
:1000C0002F0400002F0400002F0400002F04000064
:1000D0002F0400002F0400002F0400000000000087
:1000E0000000000000000000000000000000000010
:1000F0000000000000000000000000000000000000
:1001000000000000000000000000000000000000EF
:1001100000000000000000000000000000000000DF
:10040000DFF80CD000F018F8004800475D0A000043
:10041000382000200648804706480047FEE7FEE7F0
:10042000FEE7FEE7FEE7FEE7FEE7FEE7FEE7FEE7A4
:100430002105000001040000064C074D06E0E068BD
:1004400040F0010394E8070098471034AC42F6D31B
:10045000FFF7DAFF880D0000A80D000000F01F0272
:10046000012191404009800000F1E020C0F8801295
:10047000704700F01F02012191404009800000F107
:10048000E020C0F80011704700F01F0201219140E8
:100490004009800000F1E020C0F800127047000021
:1004A0002DE9F0414FF48077384600F00BFB012432
:1004B000104EA50748B1384600F00BFB0120C5F8E7
:1004C00008037470002000F08FF94FF482773846EB
:1004D00000F0F8FA00280BD0384600F0FAFA0220B3
:1004E000C5F80803B470BDE8F041012000F07CB904
:1004F000BDE8F0812400002007480021C0F8401129
:10050000C0F84411C0F84811C0F84C11C0F80011EF
:10051000C0F8041100F0F4BB0010014000F08CBBE7
:1005200070B58D480023021D0178101D0124062995
:1005300007D115782D0704D10578C5F30315032DD0
:1005400002D0062904D00FE0854E844D75670EE079
:1005500015782D0708D10578C5F30315032D06D0AE
:10056000042D04D0052D02D0062909D010E04FF04B
:100570008055D5F844527B4EC5F34235356002E0D4
:1005800015782D0704D10578C5F30315032D02D086
:10059000062906D011E0744D2E6826F080762E6074
:1005A0000EE015782D0708D10578C5F30315032D46
:1005B00006D0042D04D0052D02D006290AD011E062
:1005C0004FF08045C5F80C31C5F81031654D2D1F31
:1005D0002B6002E015782D0704D10578C5F30315CB
:1005E000032D02D0062905D00CE05E4A03216432B7
:1005F00011600AE015782D0704D10578C5F30315BD
:10060000032D02D006290DD06AE0584A0521116059
:10061000564978310C60554908310B603F21121D55
:10062000116002E0117809075AD10078C0F3031075
:10063000052855D14E4800684E4908604C48001DB9
:100640000068091D08604A4808300068091D0860F4
:1006500047480C300068091D0860454810300068A4
:10066000091D0860424814300068091D08604048B0
:10067000183000683F49203108603D481C30006850
:10068000091D08603A4820300068091D0860384894
:1006900024300068091D0860354828300068091DAD
:1006A000086033482C300068091D0860304830303D
:1006B00000683049403108602D4834300068091D19
:1006C00008602B4838300068091D086028483C3015
:1006D0000068091D0860264840300068091D086050
:1006E00021487438016841F470010160BFF34F8FF5
:1006F000BFF36F8F4FF01021D1F80002002803DB09
:10070000D1F80402002822DA1B4A14601B4804684E
:10071000002CFCD01524C1F800420568002DFCD047
:10072000C1F8044201680029FCD013600168002967
:10073000FCD0BFF34F8F0C48F0380168104A01F429
:10074000E06111430160BFF34F8F00BFFDE70E4929
:100750000C48086070BD0000E00F00F00DF0ADBA6D
:1007600000C007403C050040FCED00E01056004092
:100770000404001020C5004004E5014000E40140ED
:100780000400FA050090D0032000002002E008C811
:10079000121F08C1002AFAD170477047002001E0FB
:1007A00001C1121F002AFBD170470000BFF34F8F19
:1007B00005480168054A01F4E06111430160BFF397
:1007C0004F8F00BFFDE700000CED00E00400FA05CC
:1007D0000EB500210091CDE901106A4644F20100F6
:1007E000FFF7E4FF0EBD000070B5084C050009D00E
:1007F00010342168002907D008682060496828461D
:100800008847F6E70834F4E770BD000024000020B4
:100810002DE9F05F26484168F1B3DFF898B00E6823
:100820008146DBF8004087688078E11B21F07F4536
:10083000ED1CB0B9DFF880804FF48030C8F8440375
:10084000C8F804031120FFF709FE1120FFF711FE7D
:100850004FF0010AC8F800A02F2000F089F989F8AC
:1008600002A0B54200D23546124BE8193C3320F0C5
:100870007F401860DBF800105A46091B21F07F41C9
:10088000001B20F07F40C91C81420FD910681860FE
:100890002F2000F06DF900E004E0BDE8F05F1120CA
:1008A000FFF7F2BDBDE8F05F00F0A8B9BDE8F09F2A
:1008B0000000002004150140001001400E4910B551
:1008C0000A784C780023A24212D0521CD2B20A708D
:1008D000022A00D10B70084A0B78183252F82320F4
:1008E00002608868104420F07F408860012010BDBD
:1008F0000360002010BD0000000000202DE9F0433F
:10090000264CA4F110092278D9F8048099F80350F4
:10091000404694F801C0D9F8086031E002EB420388
:100920006168521C01EBC301A378D2B2934200D19B
:1009300000220B78022B02D0032B21D11DE00346AD
:100940004F68194603E0B94203D00B46C969B9B1F3
:10095000F9E7A9B18B4205D1C06918B9104E01253C
:10096000B56000260F68C969D96149B10B683B447D
:100970000B6005E00174C06900E000210028F9D196
:100980009445CBD1C9E9010689F80350404502D00E
:100990000120BDE8F0830020FBE7000010000020EC
:1009A000001001402DE9F0412A4F0446002607F1CE
:1009B0001005D7F804803EE002D02046E4691DE02F
:1009C0002878696800EB4002401CC0B201EBC2010C
:1009D0002870AA78904200D12E700A784868012ABF
:1009E0002BD1027C4ABB8A684260CA6882600A696D
:1009F000C26049698161F97801B146604368BA68AB
:100A0000DFF854C0991A21F07F41614502D2826813
:100A1000114406E0D11A826821F07F418A4202D94E
:100A2000511A016000E00660466001218660017491
:100A3000C66100F047F9002CBED128786978884259
:100A4000BED17968414502D00120BDE8F081002087
:100A5000FBE7000000000020FFFF7F0000200321D3
:100A60005FF0010505FA00F212F4F01F04D08200D5
:100A700002F1A042C2F80017401C2028F2D3DFF890
:100A800038800E4E08F104090D4F09F1040A0024C4
:100A9000D8F80020315D05FA01F020EA0201C9F81A
:100AA00000101040CAF80000384600F01BF8641C23
:100AB000042CEDDBEBE7000004050050840D000082
:100AC00020A1070000F180400068002800D001202C
:100AD000704708B500F18040002101600068009077
:100AE00008BD000000283ED01F49204A096800BF09
:100AF00000BF00BF00BF00BF00BF00BF00BF9142EA
:100B00002FD000BF00BF00BF00BF00BF00BF00BFAD
:100B100000BF00BF00BF00BF00BF00BF00BF00BFDD
:100B200000BF00BF00BF00BF00BF00BF00BF00BFCD
:100B300000BF00BF00BF00BF00BF00BF00BF00BFBD
:100B400000BF00BF00BF00BF00BF00BF00BF00BFAD
:100B500000BF00BF00BF00BF00BF00BF00BF00BF9D
:100B600000BF401EC3D17047200000200024F400C5
:100B700000283ED01F49204A096800BF00BF00BFBF
:100B800000BF00BF00BF00BF00BF91422FD000BF19
:100B900000BF00BF00BF00BF00BF00BF00BF00BF5D
:100BA00000BF00BF00BF00BF00BF00BF00BF00BF4D
:100BB00000BF00BF00BF00BF00BF00BF00BF00BF3D
:100BC00000BF00BF00BF00BF00BF00BF00BF00BF2D
:100BD00000BF00BF00BF00BF00BF00BF00BF00BF1D
:100BE00000BF00BF00BF00BF00BF00BF00BF401E6E
:100BF000C3D17047200000200024F40070B5012606
:100C000070044FF0E0210025C1F88001084C40102D
:100C1000C4F84803C4F8080366602F20FFF7A8FF54
:100C2000A660044C2F20A560FFF7A2FFA57070BD41
:100C300000100140000000202DE9F84F204C002555
:100C40006846D4E901B6FFF739FE8046FFF756FE45
:100C50000746A946B8F1000F25D00023009ACC46DC
:100C6000606819E007680146974202D9BA1A026023
:100C700014E0C1F800C0D1F80C80D21BC8693B4415
:100C80008A46B8F1000F07D0F71827F07F47C1E96F
:100C90000178CAF81C500D460028E3D16060284650
:100CA000FFF780FE04E02846FFF77CFE00B917B18D
:100CB0005846FFF7ADFD84F80390BDE8F88F0000BB
:100CC000000000200D4B10B5596831B102680C6866
:100CD000A24204D8A21A0A60C161586010BD0B4636
:100CE00003E00B46C969121B21B10C689442F8D38A
:100CF000A41A0C600260C161D86110BD0000002020
:100D00002DE9F0411D4D6C68002C35D01C480027A2
:100D10000068A968B846401A20F07F462068B042B3
:100D200015D82246361A0744E469107C68B182F867
:100D30001080EB6833B1D2E90501984728B1FFF77D
:100D400047FD02E0D2E905108847002CE6D129785A
:100D50006878814206D1401CC0B26870022801D177
:100D600085F8018005486978183040F82170BDE8A1
:100D7000F0411420FFF788BBBDE8F081000000209F
:100D80000415014011121314A80D000000000020EA
:100D9000240000008C070000CC0D0000240000207F
:100DA000142000009C07000000000000000000006C
:100DB0000000000000000000000000000000000033
:0C0DC00000000000000000000090D003C4
:0400000500000401F2
:00000001FF
